:020000040800F2
:1000000000000420F5B50108C1B20108C3B201081F
:10001000D7B20108D9B20108DBB2010845B6010820
:100020000000000000000000000000003D940108F6
:10003000DDB2010800000000F193010855940108A9
:10004000E1B2010845B6010845B6010845B6010808
:1000500045B6010845B6010845B6010845B6010890
:1000600045B6010845B6010845B601084DF101083D
:1000700089F10108C5F1010801F201083DF201080A
:1000800079F20108B5F20108F1F201082DF3010837
:1000900069F30108A5F30108E1F301081DF4010863
:1000A00059F4010895F40108D1F4010845B6010896
:1000B00000000000F1B2010801B3010811B301080A
:1000C00021B3010831B3010841B3010851B301085C
:1000D00061B3010871B3010845B6010845B60108CE
:1000E00045B6010845B6010845B6010845B6010800
:1000F00045B6010845B6010845B6010845B60108F0
:1001000081B3010891B3010845B6010845B601085D
:1001100045B6010845B6010845B60108A1B3010876
:10012000B1B3010845B6010845B6010845B6010856
:10013000C1B30108D1B3010800000000E1B3010818
:10014000F1B3010845B6010845B6010845B60108F6
:1001500045B6010845B6010845B6010845B601088F
:1001600045B6010845B6010845B601080000000083
:1001700045B6010845B6010845B601080000000073
:1001800045B6010845B6010845B6010845B601085F
:1001900045B6010845B6010845B6010845B601084F
:1001A00045B6010845B6010845B601080000000043
:1001B00045B601080000000045B6010845B6010833
:1001C00045B601080000000045B6010845B6010823
:1001D00045B6010845B6010845B6010845B601080F
:1001E00000000000000000000000000045B601080B
:1001F000000000000000000045B6010845B60108F7
:1002000045B6010845B6010845B6010845B60108DE
:1002100045B6010845B601080000000045B60108D2
:1002200000000000000000000000000045B60108CA
:0802300045B6010845B60108BE
:1002380053B94AB9002908BF00281CBF4FF0FF3145
:100248004FF0FF3000F0E2B8ADF1080C6DE904CED4
:100258002CF02EF9DDF804E0DDE9022304B0704744
:1002680000F1340191E838009C46A6464CF8045D3C
:1002780090E8FF0FE54600BD90EC210B704700BFEA
:1002880080EC210B704700BF90EC200B704700BF3B
:1002980080EC200B704700BFD0EC200B704700BFEC
:1002A800C0EC200B704700BFF0EC0201F0EC02112B
:1002B800F0EC0221F0EC0231F0EC0241F0EC0251DA
:1002C800F0EC0261F0EC0271F0EC0281F0EC0291CA
:1002D800F0EC02A1F0EC02B1F0EC02C1F0EC02D1BA
:1002E800F0EC02E1F0EC02F1704700BFE0EC020133
:1002F800E0EC0211E0EC0221E0EC0231E0EC02411A
:10030800E0EC0251E0EC0261E0EC0271E0EC028109
:10031800E0EC0291E0EC02A1E0EC02B1E0EC02C1F9
:10032800E0EC02D1E0EC02E1E0EC02F1704700BF42
:10033800B0FC0181B0FC0191B0FC01A1B0FC01B19D
:10034800704700BFA0FC0181A0FC0191A0FC01A1A5
:10035800A0FC01B1704700BFEC4600B52DE9005084
:100368002DE9FF1F4FF000032DE90C0001A92CF027
:100378007DFBDDF840E012B0704700BFEC4600B5E9
:100388002DE900502DE9FF1F4FF000032DE90C0067
:1003980001A92CF0A9FBDDF840E012B0704700BFBE
:1003A800EC4600B52DE900502DE9FF1F4FF0000382
:1003B8002DE90C0001A92CF0B9FBDDF840E012B0E2
:1003C800704700BFEC4600B52DE900502DE9FF1F2E
:1003D8004FF000032DE90C0001AB2CF07BFBDDF89E
:1003E80040E012B0704700BFEC4600B52DE9005060
:1003F8002DE9FF1F4FF000032DE90C0001AA2CF096
:10040800EFFBDDF840E012B0704700BF704700BF57
:1004180010F8012B11F8013B012A28BF9A42F7D0A6
:10042800D01A7047034613F8012B002AFBD1181A7B
:10043800013870470348044B834202D0034B03B191
:1004480018477047A8010020A801002000000000FC
:10045800064B0749C91A891048BF0131491003D012
:10046800044B0BB101481847704700BFA801002092
:10047800A80100200000000010B5064C237843B9FD
:10048800FFF7D8FF044B13B10448AFF300800123F2
:10049800237010BDA801002000000000A0F402088D
:1004A80008B5054B1BB105490548AFF30080BDE809
:1004B8000840FFF7CDBF00BF00000000AC010020DE
:1004C800A0F4020880B400AF184BD3F88830174A5C
:1004D80043F47003C2F88830154B01221A60144B9C
:1004E8000022DA61124B00221A62114B00225A6272
:1004F8000F4B1B680E4A23F0A85323F410231360F4
:100508000B4B00229A620A4B1B68094A23F480238A
:100518001360074B00221A65044B4FF000629A6083
:1005280000BFBD465DF8047B704700BF00ED00E0EA
:10053800000C024680B582B000AF78607B68002B63
:1005480001D1012354E07B6893F83D30DBB2002BE6
:1005580011D17B68002283F83C20786800F022FFE4
:100568007B68DB6C002B02D17B68234ADA647B68EA
:10057800DB6C786898477B68022283F83D207B68AB
:100588001A687B6804331946104600F00DFD7B6835
:10059800012283F848207B68012283F83E207B688B
:1005A800012283F83F207B68012283F840207B6882
:1005B800012283F841207B68012283F842207B686E
:1005C800012283F843207B68012283F844207B685A
:1005D800012283F845207B68012283F846207B6846
:1005E800012283F847207B68012283F83D200023FD
:1005F80018460837BD4680BDC9AA010880B485B031
:1006080000AF78607B6893F83D30DBB2012B01D0F6
:10061800012372E07B68022283F83D207B681B6817
:10062800DA687B681B6842F00102DA607B681B6845
:10063800354A934240D07B681B68344A93423BD08A
:100648007B681B68B3F1804F36D07B681B68B3F1B9
:10065800A04F31D07B681B682D4A93422CD07B6811
:100668001B682C4A934227D07B681B682A4A93420E
:1006780022D07B681B68294A93421DD07B681B687F
:10068800274A934218D07B681B68264A934213D0A6
:100698007B681B68244A93420ED07B681B68234AF8
:1006A800934209D07B681B68214A934204D07B6837
:1006B8001B68204A934215D17B681B689A681E4BB9
:1006C8001340FB60FB68062B15D0FB68B3F5803F31
:1006D80011D07B681B681A687B681B6842F00102AE
:1006E8001A6008E07B681B681A687B681B6842F020
:1006F80001021A6000E000BF002318461437BD4607
:100708005DF8047B704700BF002C0140002C0150AD
:100718000004004000040050000800400008005099
:10072800000C0040000C005000340140003401501F
:1007380000400140004001500700010080B584B02E
:1007480000AF78607B681B68DB68FB607B681B68B0
:100758001B69BB60BB6803F00203002B26D0FB6853
:1007680003F00203002B21D07B681B686FF00202A4
:100778001A617B6801221A777B681B689B6903F002
:100788000303002B05D07B68D3F89430786898472A
:1007980009E07B68D3F89C30786898477B68D3F881
:1007A800A030786898477B6800221A77BB6803F006
:1007B8000403002B26D0FB6803F00403002B21D090
:1007C8007B681B686FF004021A617B6802221A7743
:1007D8007B681B689B6903F44073002B05D07B681A
:1007E800D3F894307868984709E07B68D3F89C3050
:1007F800786898477B68D3F8A030786898477B6812
:1008080000221A77BB6803F00803002B26D0FB6888
:1008180003F00803002B21D07B681B686FF00802E7
:100828001A617B6804221A777B681B68DB6903F00E
:100838000303002B05D07B68D3F894307868984779
:1008480009E07B68D3F89C30786898477B68D3F8D0
:10085800A030786898477B6800221A77BB6803F055
:100868001003002B26D0FB6803F01003002B21D0C7
:100878007B681B686FF010021A617B6808221A7780
:100888007B681B68DB6903F44073002B05D07B6829
:10089800D3F894307868984709E07B68D3F89C309F
:1008A800786898477B68D3F8A030786898477B6861
:1008B80000221A77BB6803F00103002B0ED0FB68F7
:1008C80003F00103002B09D07B681B686FF001025D
:1008D8001A617B68D3F8843078689847BB6803F05E
:1008E8008003002B04D1BB6803F40053002B0ED007
:1008F800FB6803F08003002B09D07B681B686FF44A
:1009080002521A617B68D3F8B43078689847BB689C
:1009180003F48073002B0ED0FB6803F08003002BD8
:1009280009D07B681B686FF480721A617B68D3F802
:10093800B83078689847BB6803F04003002B0ED0A6
:10094800FB6803F04003002B09D07B681B686FF03D
:1009580040021A617B68D3F88C3078689847BB6886
:1009680003F02003002B0ED0FB6803F02003002BBC
:1009780009D07B681B686FF020021A617B68D3F886
:10098800AC3078689847BB6803F48013002B0ED00E
:10099800FB6803F48013002B09D07B681B686FF495
:1009A80080121A617B68D3F8BC3078689847BB68B6
:1009B80003F40013002B0ED0FB6803F40013002B84
:1009C80009D07B681B686FF400121A617B68D3F842
:1009D800C03078689847BB6803F48003002B0ED0BA
:1009E800FB6803F48003002B09D07B681B686FF455
:1009F80080021A617B68D3F8C43078689847BB686E
:100A080003F40003002B0ED0FB6803F40003002B53
:100A180009D07B681B686FF400021A617B68D3F801
:100A2800C8307868984700BF1037BD4680BD0000C1
:100A380080B584B000AF786039600023FB737B68B1
:100A480093F83C30012B01D10223E6E07B680122B8
:100A580083F83C207B68022283F83D207B681B6872
:100A68009B68BB60BB6823F4441323F07703BB6027
:100A7800BB6823F47F43BB607B681B68BA689A60D5
:100A88003B681B68674A934200F0B180654A93420D
:100A980000F2B680644A934200F0A980624A934209
:100AA80000F2AE80614A934200F0A1805F4A93420F
:100AB80000F2A6805E4A934200F099805C4A934215
:100AC80000F29E80B3F1101F00F09180B3F1101F67
:100AD80000F29680B3F5801F00F08980B3F5801F7F
:100AE80000F28E80B3F5005F3ED0B3F5005F00F2F0
:100AF8008780B3F5805F00F08680B3F5805F7FD88C
:100B0800702B1AD0702B7BD8602B50D0602B77D8E5
:100B1800502B3CD0502B73D8402B58D0402B6FD83B
:100B2800302B64D0302B6BD8202B60D0202B67D88B
:100B3800002B5CD0102B5AD062E07B6818683B68A9
:100B480099683B685A683B68DB6800F00AFC7B6878
:100B58001B689B68BB60BB6843F07703BB607B681E
:100B68001B68BA689A604FE07B6818683B689968A8
:100B78003B685A683B68DB6800F0F3FB7B681B68DE
:100B88009A687B681B6842F480429A603CE07B6804
:100B980018683B6859683B68DB681A4600F004FB34
:100BA8007B681B685021184600F0BEFB2CE07B6870
:100BB80018683B6859683B68DB681A4600F066FBB2
:100BC8007B681B686021184600F0AEFB1CE07B6860
:100BD80018683B6859683B68DB681A4600F0E4FA15
:100BE8007B681B684021184600F09EFB0CE07B6880
:100BF8001A683B681B681946104600F095FB03E02D
:100C08000123FB7300E000BF7B68012283F83D20CD
:100C18007B68002283F83C20FB7B18461037BD46D2
:100C280080BD00BF700010004000100030001000B0
:100C38002000100080B483B000AF786000BF0C378C
:100C4800BD465DF8047B704780B483B000AF786020
:100C580000BF0C37BD465DF8047B704780B483B095
:100C680000AF786000BF0C37BD465DF8047B704765
:100C780080B483B000AF786000BF0C37BD465DF824
:100C8800047B704780B483B000AF786000BF0C3736
:100C9800BD465DF8047B704780B483B000AF7860D0
:100CA80000BF0C37BD465DF8047B704780B483B045
:100CB80000AF786000BF0C37BD465DF8047B704715
:100CC80080B483B000AF786000BF0C37BD465DF8D4
:100CD800047B704780B483B000AF786000BF0C37E6
:100CE800BD465DF8047B704780B487B000AFF860FC
:100CF8000B467A60FB720023FB757B68002B01D1E1
:100D080001234AE1FB6893F83D30DBB2012B40F048
:100D1800DD80FB7A1F2B00F2D68001A252F823F067
:100D2800A90D0008B10D0008B90D0008C10D000893
:100D3800C90D0008D10D0008D90D0008E10D000803
:100D4800E90D0008F10D0008F90D0008010E000872
:100D5800090E0008110E00081B0E0008250E0008D9
:100D68002F0E0008390E0008430E00084D0E00082B
:100D7800570E0008610E00086B0E0008750E00087B
:100D88007F0E0008890E0008930E00089D0E0008CB
:100D9800A70E0008B10E0008BB0E0008C50E00081B
:100DA800FB687A68DA64F7E0FB687A681A65F3E04A
:100DB800FB687A685A65EFE0FB687A689A65EBE049
:100DC800FB687A68DA65E7E0FB687A681A66E3E048
:100DD800FB687A685A66DFE0FB687A689A66DBE047
:100DE800FB687A68DA66D7E0FB687A681A67D3E046
:100DF800FB687A685A67CFE0FB687A689A67CBE045
:100E0800FB687A68DA67C7E0FB687A68C3F880200D
:100E1800C2E0FB687A68C3F88420BDE0FB687A68A2
:100E2800C3F88820B8E0FB687A68C3F88C20B3E080
:100E3800FB687A68C3F89020AEE0FB687A68C3F86C
:100E48009420A9E0FB687A68C3F89820A4E0FB68BE
:100E58007A68C3F89C209FE0FB687A68C3F8A020F2
:100E68009AE0FB687A68C3F8A42095E0FB687A6882
:100E7800C3F8A82090E0FB687A68C3F8AC208BE040
:100E8800FB687A68C3F8B02086E0FB687A68C3F824
:100E9800B42081E0FB687A68C3F8B8207CE0FB687E
:100EA8007A68C3F8BC2077E0FB687A68C3F8C0208A
:100EB80072E0FB687A68C3F8C4206DE0FB687A6862
:100EC800C3F8C82068E00123FB7565E0FB6893F868
:100ED8003D30DBB2002B5DD1FB7A0D2B57D801A238
:100EE80052F823F0250F00082D0F0008350F0008D1
:100EF8003D0F0008450F00084D0F0008550F00086A
:100F08005D0F0008650F00086D0F0008750F0008D9
:100F18007D0F0008850F00088D0F0008FB687A68B0
:100F2800DA6439E0FB687A681A6535E0FB687A6844
:100F38005A6531E0FB687A689A652DE0FB687A6843
:100F4800DA6529E0FB687A681A6625E0FB687A6842
:100F58005A6621E0FB687A689A661DE0FB687A6841
:100F6800DA6619E0FB687A681A6715E0FB687A6840
:100F78005A6711E0FB687A689A670DE0FB687A683F
:100F8800DA6709E0FB687A68C3F8802004E0012387
:100F9800FB7501E00123FB75FB7D18461C37BD4638
:100FA8005DF8047B704700BF80B485B000AF7860FF
:100FB80039607B681B68FB607B686B4A93422BD067
:100FC8007B686A4A934227D07B68B3F1804F23D06D
:100FD8007B68B3F1A04F1FD07B68654A93421BD052
:100FE8007B68644A934217D07B68634A934213D064
:100FF8007B68624A93420FD07B68614A93420BD068
:101008007B68604A934207D07B685F4A934203D06B
:101018007B685E4A934208D1FB6823F07003FB604B
:101028003B685B68FA681343FB607B684E4A9342EF
:1010380043D07B684D4A93423FD07B68B3F1804FE1
:101048003BD07B68B3F1A04F37D07B68484A9342C6
:1010580033D07B68474A93422FD07B68464A9342F5
:101068002BD07B68454A934227D07B68444A9342F9
:1010780023D07B68434A93421FD07B68424A9342FD
:101088001BD07B68414A934217D07B68404A934201
:1010980013D07B683F4A93420FD07B683E4A934205
:1010A8000BD07B683D4A934207D07B683C4A934209
:1010B80003D07B683B4A934208D1FB6823F4407312
:1010C800FB603B68DB68FA681343FB60FB6823F04E
:1010D80080023B685B691343FB603B689A687B68E6
:1010E800DA623B681A687B689A627B681E4A934298
:1010F80023D07B681D4A93421FD07B68224A9342C3
:101108001BD07B68214A934217D07B68204A9342C0
:1011180013D07B681F4A93420FD07B681E4A9342C4
:101128000BD07B681D4A934207D07B681C4A9342C8
:1011380003D07B681B4A934203D13B681A697B68DA
:101148001A637B681B6843F004027B681A607B683B
:1011580001225A617B68FA681A6000BF1437BD46DD
:101168005DF8047B704700BF002C0140002C015043
:10117800000400400004005000080040000800502F
:10118800000C0040000C00500034014000340150B5
:10119800004001400040015000440140004401501B
:1011A800004801400048015080B487B000AFF860A3
:1011B800B9607A60FB681B6A7B61FB681B6A23F075
:1011C8000102FB681A62FB68264A934223D0FB6837
:1011D800254A93421FD0FB68244A93421BD0FB68E0
:1011E800234A934217D0FB68224A934213D0FB68E4
:1011F800214A93420FD0FB68204A93420BD0FB68E8
:101208001F4A934207D0FB681E4A934203D0FB68EB
:101218001D4A934205D1FB681B6A23F00402FB6850
:101228001A62FB689B693B613B6923F0F0033B61F1
:101238007B681B013A6913433B617B6923F00A030E
:101248007B617A69BB6813437B61FB683A699A6181
:10125800FB687A691A6200BF1C37BD465DF8047BDB
:10126800704700BF002C0140002C015000340140A1
:10127800003401500040014000400150004401404A
:1012880000440150004801400048015080B487B034
:1012980000AFF860B9607A60FB681B6A7B61FB6825
:1012A8001B6A23F01002FB681A62FB681A4A934211
:1012B8000BD0FB68194A934207D0FB68184A93423F
:1012C80003D0FB68174A934205D1FB681B6A23F0D9
:1012D8004002FB681A62FB689B693B613B6923F427
:1012E80070433B617B681B033A6913433B617B692D
:1012F80023F0A0037B61BB681B017A6913437B6100
:10130800FB683A699A61FB687A691A6200BF1C3700
:10131800BD465DF8047B7047002C0140002C01504D
:10132800003401400034015080B485B000AF7860CB
:1013380039607B689B68FB60FB6823F4401323F0EB
:101348007003FB603A68FB68134343F00703FB60D4
:101358007B68FA689A6000BF1437BD465DF8047B65
:10136800704780B487B000AFF860B9607A603B60BE
:10137800FB689B687B617B6923F47F437B613B68E7
:101388001A027B681A43BB6813437A6913437B616B
:10139800FB687A699A6000BF1C37BD465DF8047B1C
:1013A8007047000080B483B000AF78607B68264A3D
:1013B800C3F884207B68254AC3F888207B68244AC0
:1013C800C3F88C207B68234AC3F890207B68224AA4
:1013D800C3F894207B68214AC3F898207B68204A88
:1013E800C3F89C207B681F4AC3F8A0207B681E4A6C
:1013F800C3F8A4207B681D4AC3F8A8207B681C4A50
:10140800C3F8AC207B681B4AC3F8B0207B681A4A33
:10141800C3F8B4207B68194AC3F8B8207B68184A17
:10142800C3F8BC207B68174AC3F8C0207B68164AFB
:10143800C3F8C4207B68154AC3F8C82000BF0C371E
:10144800BD465DF8047B704711A201083D0C0008F9
:10145800B50C0008C90C0008650C0008790C0008D8
:10146800510C00088D0C0008A10C0008DD0C0008C8
:101478001D16000831160008451600085916000800
:101488006D1600088116000895160008A9160008B0
:1014980080B485B000AF786039607B6893F83C30E1
:1014A800012B01D1022397E07B68012283F83C20BD
:1014B8007B68022283F83D207B681B685B68FB60C1
:1014C8007B681B689B68BB607B681B68454A9342C6
:1014D8000ED07B681B68444A934209D07B681B681E
:1014E800424A934204D07B681B68414A934208D120
:1014F800FB6823F47003FB603B685B68FA6813437E
:10150800FB60FB6823F0007323F07003FB603B680B
:101518001B68FA681343FB607B681B68FA685A60AB
:101528007B681B682F4A934240D07B681B682E4A11
:1015380093423BD07B681B68B3F1804F36D07B6801
:101548001B68B3F1A04F31D07B681B68294A9342CE
:101558002CD07B681B68284A934227D07B681B687D
:10156800264A934222D07B681B68254A93421DD0A5
:101578007B681B68234A934218D07B681B68224A01
:10158800934213D07B681B68184A93420ED07B683D
:101598001B68174A934209D07B681B681B4A934211
:1015A80004D07B681B681A4A93420CD1BB6823F0AD
:1015B8008003BB603B689B68BA681343BB607B6869
:1015C8001B68BA689A607B68012283F83D207B68B3
:1015D800002283F83C20002318461437BD465DF8E6
:1015E800047B7047002C0140002C0150003401405E
:1015F800003401500004004000040050000800407E
:1016080000080050000C0040000C00500040014051
:101618000040015080B483B000AF786000BF0C3741
:10162800BD465DF8047B704780B483B000AF786036
:1016380000BF0C37BD465DF8047B704780B483B0AB
:1016480000AF786000BF0C37BD465DF8047B70477B
:1016580080B483B000AF786000BF0C37BD465DF83A
:10166800047B704780B483B000AF786000BF0C374C
:10167800BD465DF8047B704780B483B000AF7860E6
:1016880000BF0C37BD465DF8047B704780B483B05B
:1016980000AF786000BF0C37BD465DF8047B70472B
:1016A80080B483B000AF786000BF0C37BD465DF8EA
:1016B800047B704780B483B000AF786039607B6882
:1016C8001B6823F470123B681A437B681A6000BFDA
:1016D8000C37BD465DF8047B704780B483B000AF1B
:1016E800786039607B681B6823F0E0723B681A43B6
:1016F8007B681A6000BF0C37BD465DF8047B7047F5
:1017080080B483B000AF78607B681B6803F0E07337
:1017180018460C37BD465DF8047B704780B485B029
:1017280000AF786039603B68FB607B680A4A934287
:1017380004D1FB68013B03F00C03FB607B68DB68AA
:1017480023F00C02FB681A437B68DA6000BF143789
:10175800BD465DF8047B70470010024680B487B030
:1017680000AFF860B9607A603B60FB6860331A4686
:10177800BB689B0013447B617B691B6803F0E062D4
:101788007B685B0003F078413B680B431A437B6935
:101798001A6000BF1C37BD465DF8047B704780B4F3
:1017A80085B000AF786039607B6860331A463B6863
:1017B8009B001344FB60FB681B68DB0E03F01F03F0
:1017C800BB60BB68092B07D8BB689A060121BB68B8
:1017D80001FA03F3134308E0BB689A060121BB68CA
:1017E80001FA03F3134343F0007318461437BD4658
:1017F8005DF8047B704780B487B000AFF860B960CB
:101808007A60FB6860331A46BB689B0013447B61AF
:101818007B691B6823F080727B681A437B691A60B6
:1018280000BF1C37BD465DF8047B704780B487B0A5
:1018380000AFF860B9607A60FB6860331A46BB682D
:101848009B0013447B617B691B6823F080627B6883
:101858001A437B691A6000BF1C37BD465DF8047BDC
:10186800704780B487B000AFF860B9607A60FB68F1
:1018780060331A46BB689B0013447B617B691B6815
:1018880023F000727B681A437B691A6000BF1C371B
:10189800BD465DF8047B704780B483B000AF7860C4
:1018A80039607B681B6F23F47F5323F03F033A684A
:1018B8001A437B681A677B681B6F23F000433A68FA
:1018C800002A02D04FF0004200E000221A437B6851
:1018D8001A6700BF0C37BD465DF8047B704780B4BB
:1018E80085B000AFF860B9607A60FB685A69BB6878
:1018F80003F00403072101FA03F3DB431A40BB6832
:1019080003F00403796801FA03F31A43FB685A6188
:1019180000BF1437BD465DF8047B704780B483B0C0
:1019280000AF78607B68DB6803F44063002B01D16B
:10193800012300E0002318460C37BD465DF8047B00
:101948007047000080B489B000AFF860B9607A6071
:10195800FB682B4A934220D0FB6830331A46BB6899
:101968001B0A9B0003F00C031344FB61FB691A6814
:10197800BB6803F01F031F2101FA03F3DB431A407E
:101988007B689B0E03F01F01BB6803F01F0301FA7D
:1019980003F31A43FB691A602BE0FB689A6ABB6879
:1019A80003F01F030F2101FA03F3DB431A407B689E
:1019B80023F07F43002B04D17B689B0E03F01F03A9
:1019C80010E07B687B617B6993FAA3F33B613B6919
:1019D800BB61BB69002B01D1202303E0BB69B3FACB
:1019E80083F3DBB2B96801F01F018B401A43FB682F
:1019F8009A6200BF2437BD465DF8047B704700BF7C
:101A08000010024680B487B000AF786039603B6848
:101A180023F07F43002B07D13B689B0E03F01F0385
:101A2800012202FA03F315E03B683B613B6993FA34
:101A3800A3F3FB60FB687B617B69002B01D120234A
:101A480003E07B69B3FA83F3DBB203F01F030122DF
:101A580002FA03F37A68926A1A437B689A6200BFB3
:101A68001C37BD465DF8047B704780B483B000AF77
:101A7800786039607B689A6A3B689B0E03F01F03A5
:101A8800012101FA03F3DB431A407B689A6200BF25
:101A98000C37BD465DF8047B704780B483B000AF57
:101AA80078607B68DB6803F0030318460C37BD4693
:101AB8005DF8047B704780B483B000AF78607B68C2
:101AC800DB6C03F4C073002B01D1012300E0002379
:101AD80018460C37BD465DF8047B704780B48BB060
:101AE80000AFF860B9607A60FB682D4A934242D033
:101AF800BB6823F07F43002B04D1BB689B0E03F027
:101B08001F0211E0BB68BB61BB6993FAA3F37B6159
:101B18007B69FB61FB69002B01D1202303E0FB6992
:101B2800B3FA83F3DBB21A46BB685B0E03F001011C
:101B38000B469B000B445B00D21A13465B00134410
:101B48007B62FB6814331A46BB685B0E9B0003F08C
:101B5800040313443B623B6A1A6807217B6A01FA53
:101B680003F3DB431A4079687B6A01FA03F31A43EB
:101B78003B6A1A600EE0FB685A69BB681B02DB43CC
:101B88001A40BB6819027B680B4023F0FF031A4315
:101B9800FB685A6100BF2C37BD465DF8047B70476F
:101BA8000010024680B485B000AFF860B9607A6072
:101BB800FB68D3F8C020BB6823F07F43DB431A409F
:101BC8007B6803F018030849D940BB680B4023F031
:101BD8007F431A43FB68C3F8C02000BF1437BD46D3
:101BE8005DF8047B704700BFFFFF0F0080B483B02F
:101BF80000AF78607B689B6823F0204323F03F03A5
:101C08007A68936000BF0C37BD465DF8047B704767
:101C180080B483B000AF78607B689B6803F00053A2
:101C2800B3F1005F01D1012300E0002318460C370F
:101C3800BD465DF8047B704780B483B000AF786020
:101C48007B689B6823F0104323F03F0343F08052E6
:101C58007B689A6000BF0C37BD465DF8047B70470F
:101C680080B483B000AF78607B689B6803F08053D2
:101C7800B3F1805F01D1012300E0002318460C373F
:101C8800BD465DF8047B704780B483B000AF7860D0
:101C98007B689B6823F0004323F03F0343F0010275
:101CA8007B689A6000BF0C37BD465DF8047B7047BF
:101CB80080B483B000AF78607B689B6823F00043F2
:101CC80023F03F0343F002027B689A6000BF0C37A1
:101CD800BD465DF8047B704780B483B000AF786080
:101CE8007B689B6803F00103012B01D1012300E00D
:101CF800002318460C37BD465DF8047B704780B456
:101D080083B000AF78607B689B6803F00203022B06
:101D180001D1012300E0002318460C37BD465DF8C9
:101D2800047B704780B483B000AF78607B689B68A1
:101D380023F0004323F03F0343F004027B689A60DA
:101D480000BF0C37BD465DF8047B704780B483B094
:101D580000AF78607B689B6823F0004323F03F0363
:101D680043F010027B689A6000BF0C37BD465DF8EF
:101D7800047B704780B483B000AF78607B689B6851
:101D880003F00403042B01D1012300E000231846CB
:101D98000C37BD465DF8047B704780B483B000AF54
:101DA80078607B689B6823F0004323F03F0343F08F
:101DB80020027B689A6000BF0C37BD465DF8047B43
:101DC800704780B483B000AF78607B689B6803F08D
:101DD8000803082B01D1012300E0002318460C3723
:101DE800BD465DF8047B704780B58AB000AF786067
:101DF800002387F8273000233B620023FB617B68C0
:101E0800002B01D10123B3E27B681B69002B03D0AF
:101E18007B681B688B4A93427B689B6F002B09D1B8
:101E2800786818F0A3FB7B680022DA677B680022D9
:101E380083F874207B681B681846FFF7E9FE0346A1
:101E4800002B04D07B681B681846FFF7CFFE7B6821
:101E58001B681846FFF704FF0346002B15D17B6863
:101E68001B681846FFF7E8FE774B1B689B09774A03
:101E7800A2FB03239B0901335B00FB6002E0FB68C4
:101E8800013BFB60FB68002BF9D17B681B68184697
:101E9800FFF7E6FE0346002B0ED17B689B6F43F0ED
:101EA80010027B689A677B68DB6F43F001027B68EE
:101EB800DA67012387F827307B681B681846FFF725
:101EC80059FFB8617B689B6F03F01003002B40F04B
:101ED8004482BB69002B40F040827B689B6F23F4EF
:101EE800817343F002027B689A677B681B68184617
:101EF800FFF7F2FE0346002B40D17B681B68514A6E
:101F0800934228D07B681B68514A934209D15048B4
:101F1800FFF7E2FE0346002B0CBF01230023DBB2D0
:101F280008E04848FFF7D8FE0346002B0CBF012302
:101F38000023DBB2002B21D07B681B68444A934204
:101F480001D1444A00E0444A7B685B681946104660
:101F5800FFF7B0FB12E07B681A687B689B6819463C
:101F68001046FFF7DBFB3C4B1B6823F470127B68C1
:101F78005B6803F47013384913430B607B681B6874
:101F8800304A934210D07B6893F824305A037B6818
:101F98005B6C1A437B689B681A437B6893F82C3008
:101FA8001B0413433B6230E07B681B7F9A037B680A
:101FB80093F824305B0313437A68526C002A02D0EA
:101FC8004FF4805200E000221A437B685B691A4391
:101FD8007B681B69002B04DA7B681B6923F00043CC
:101FE80001E04FF400131A437B681B6818498B42C1
:101FF80003D17B6893F8403003E07B6893F8403066
:102008005B0013433A6A13433B627B6893F82C30B6
:10201800012B2FD17B681B680A4A934207D07B6843
:102028001B6B013B5B043A6A13433B6222E07B680B
:1020380093F82430002B11D13B6A43F480333B6280
:1020480018E000BF0010024604000020632D3E0582
:102058000080024208830242081302467B689B6F95
:1020680043F020027B689A677B68DB6F43F00102CC
:102078007B68DA677B681B68924A934218D07B6852
:102088005B6B002B09D07B685B6B03F478727B6811
:102098009B6B13433A6A13433B627B681B68DA689D
:1020A800894B13407A681268396A0B43D36031E070
:1020B8007B685B6B002B09D07B685B6B03F4E07279
:1020C8007B689B6B13433A6A13433B627B681B68CC
:1020D800DA687E4B13407A681268396A0B43D3601A
:1020E8007B681B6A002B08D07B681B68596C7B686F
:1020F8001A6A7B681B680A435A647B68DB6E002B8C
:1021080008D07B681B68596C7B68DA6E7B681B6833
:102118000A435A647B681B686A4A934200F09380BA
:102128007B681B681846FFF725FE78617B681B688B
:102138001846FFF746FE38617B69002B61D13B6981
:10214800002B5ED17B681B7F9A037B681B68604904
:102158008B4202D17B68DB6B02E07B68DB6B5B0048
:1021680013433B627B681B68DB6823F4804323F0DE
:1021780003037A681268396A0B43D3607B68DB68AB
:10218800002B07D07B681A687B68DB681946104605
:10219800FFF782FB7B6893F85430012B1ED17B68D4
:1021A8005B6B002B7B681B681A694A4B13407A6883
:1021B800926D11047A68D26D11437A68126E1143D8
:1021C8007A68526E11437A68926E92080A431A43EB
:1021D8007B681B6842F001021A6107E07B681B6894
:1021E8001A697B681B6822F001021A617B681B6808
:1021F8001B6923F070417B681A6D7B681B680A4372
:102208001A617B681B69012B0CD17B681B681B6BEF
:1022180023F00F017B689B6A5A1E7B681B680A4380
:102228001A6307E07B681B681A6B7B681B6822F0DF
:102238000F021A637B689B6F23F0030343F00102CC
:102248007B689A6792E07B6893F85430012B11D130
:102258007B689A6D7B68DB6D1A437B681B6E1A433B
:102268007B689B6E1343FA691343FB61FB6943F078
:102278000103FB617B681B681A69174B13407A6876
:102288001268F9690B4313617B6818687B689B6C5B
:102298001A460021FFF723FB7B6818687B68DB6C14
:1022A8001A466FF0FB01FFF71AFB7B681B69002BCE
:1022B80014D17B681B689A6A7B681B6862F00F02FE
:1022C8009A6224E00010024613C0F0FF0D80DEFF82
:1022D800008002421EF800FC02FCFFF77B681B69C5
:1022E800B3F5001F13D17B681B689B6A7B689B6AE8
:1022F800013B9B0003F01C036FF00F0202FA03F18D
:102308007B68D3F888207B681B680A439A627B68DD
:102318001B68DA68184B13403A6A9A420BD17B68FB
:102328000022DA677B689B6F23F0030343F0010206
:102338007B689A671AE07B689B6F23F0120343F06F
:1023480010027B689A677B68DB6F43F001027B6849
:10235800DA67012387F8273008E07B689B6F43F032
:1023680010027B689A67012387F8273097F827308F
:1023780018462837BD4680BDF3FF3F8380B584B03B
:1023880000AF78607B681B681846FFF7F3FC0346CC
:10239800002B5DD17B6893F87430012B01D10223A7
:1023A80059E07B68012283F87420786801F03CFBCF
:1023B8000346FB73FB7B002B45D17B689B6F23F4A3
:1023C800706323F0010343F480727B689A677B682B
:1023D8001B68234A934211D07B689B6F03F4805398
:1023E800B3F5805F06D17B68DB6F23F006027B685C
:1023F800DA6706E07B680022DA6702E07B68002281
:10240800DA677B681B681C221A607B68002283F8E5
:1024180074207B681B68124A93420ED07B681B6845
:10242800DB6803F00073002B07D07B689B6F23F4F5
:10243800405343F480527B689A677B681B68184650
:10244800FFF770FC06E07B68002283F8742001E047
:102458000223FB73FB7B18461037BD4680BD00BFC7
:102468000010024680B584B000AF78607B6893F8AE
:102478007430012B01D1022323E07B68012283F809
:1024880074200321786801F013FA0346FB73FB7B81
:10249800002B11D1786801F037FB0346FB73FB7BF7
:1024A800002B09D17B689B6F23F4885323F0010329
:1024B80043F001027B689A677B68002283F87420E6
:1024C800FB7B18461037BD4680BD000080B586B03E
:1024D80000AF786039607B689B69082B02D10823BC
:1024E8007B6127E07B681B686A4A934211D07B684E
:1024F8001B68DB6803F00103002B07D07B689B6F28
:1025080043F020027B689A670123BEE004237B61C5
:1025180010E07B681B68DB6803F00103002B07D021
:102528007B689B6F43F020027B689A670123ACE0CD
:1025380004237B6103F052FC386121E03B68B3F16E
:10254800FF3F1DD003F04AFC02463B69D31A3A68A4
:102558009A4202D33B68002B12D17B681B681A6829
:102568007B691340002B0BD17B689B6F43F00402FF
:102578007B689A677B68002283F87420032384E0D1
:102588007B681B681A687B691340002BD6D07B6870
:102598009B6F43F400727B689A677B681B681846D8
:1025A800FFF7BCF90346002B6ED07B6893F8243004
:1025B800002B69D17B681B68364A93422ED07B6812
:1025C8001B681B6803F00803082B11D17B689B6FFD
:1025D80023F480727B689A677B689B6F03F480534F
:1025E800002B05D17B689B6F43F001027B689A67DB
:1025F8007B681B68DB68FB607B69082B04D17B6800
:102608001B6808221A603FE0FB6803F48043002B34
:102618003AD17B681B680C221A6035E07B681B681E
:102628001B6803F00803082B26D17B681B68184633
:10263800FFF7A0FB0346002B12D17B681B685A6882
:102648007B681B6822F00C025A607B689B6F23F43E
:10265800807323F0010343F001027B689A670BE063
:102668007B689B6F43F020027B689A677B68DB6F0F
:1026780043F001027B68DA677B681B7F002B03D17C
:102688007B681B680C221A60002318461837BD4661
:1026980080BD00BF0010024680B483B000AF7860F0
:1026A8007B681B681B6C18460C37BD465DF8047BBD
:1026B8007047000080B588B000AF78600023FB61E8
:1026C8007B681B681B68BB617B681B685B687B61F8
:1026D800BB6903F00203002B17D07B6903F00203E8
:1026E800002B12D07B689B6F03F01003002B05D1E1
:1026F8007B689B6F43F400627B689A67786801F097
:1027080015FC7B681B6802221A60BB6903F004038E
:10271800002B04D07B6903F00403002B0BD1BB69A9
:1027280003F00803002B00F0A4807B6903F0080382
:10273800002B00F09E807B689B6F03F01003002B3A
:1027480005D17B689B6F43F400727B689A677B684E
:102758001B683D4A934247D07B681B681846FFF7C1
:10276800DDF80346002B7DD07B681B68DB683B6186
:102778003B6903F40053002B74D17B681B681B680A
:1027880003F00803082B6DD17B681B681846FFF718
:10279800F1FA0346002B1AD17B681B685A687B68DC
:1027A8001B6822F00C025A607B689B6F23F48072CE
:1027B8007B689A677B689B6F03F48053002B51D129
:1027C8007B689B6F43F001027B689A674AE07B68ED
:1027D8009B6F43F010027B689A677B68DB6F43F05E
:1027E80001027B68DA673DE07B681B681846FFF7E3
:1027F80095F80346002B35D07B6893F82430002BDE
:1028080030D17B681B681B6803F00803082B29D1AB
:102818007B681B681846FFF7ADFA0346002B15D1F5
:102828007B681B685A687B681B6822F00C025A6038
:102838007B689B6F23F4807323F0010343F001024C
:102848007B689A670EE000BF001002467B689B6FAA
:1028580043F020027B689A677B68DB6F43F00102D4
:102868007B68DA67786800F057F97B681B680C2288
:102878001A607B681B686D4A93426FD0BB6903F08E
:102888002003002B04D07B6903F02003002B09D11F
:10289800BB6903F04003002B60D07B6903F0400361
:1028A800002B5BD07B689B6F03F01003002B05D1D6
:1028B8007B689B6F43F400527B689A677B681B6850
:1028C8001846FFF7F8F8F8607B681B681846FFF7AA
:1028D80025F8B8607B681B68DB683B61FB68002BE8
:1028E80035D03B6903F00073002B07D0BB68002B81
:1028F8002DD03B6903F40053002B28D17B681B685B
:102908001B6803F04003402B21D17B681B681846E5
:10291800FFF757FA0346002B19D17B681B685A68E2
:102928007B681B6822F060025A607B689B6F23F407
:1029380080527B689A677B689B6F03F48073002BD7
:1029480005D17B689B6F43F001027B689A677868C2
:1029580001F0CEFA7B681B6860221A60BB6903F03D
:102968008003002B11D07B6903F08003002B0CD06F
:102978007B689B6F43F480327B689A67786800F0C5
:10298800D5F87B681B6880221A60BB6903F48073E2
:10299800002B12D07B6903F48073002B0DD07B6869
:1029A8009B6F43F400327B689A67786801F0AAFA53
:1029B8007B681B684FF480721A60BB6903F400736C
:1029C800002B12D07B6903F40073002B0DD07B68B9
:1029D8009B6F43F480227B689A67786801F09CFAC1
:1029E8007B681B684FF400721A60BB6903F0100320
:1029F800002B3DD07B6903F01003002B38D07B6897
:102A08005B6C002B02D10123FB611BE07B681B6818
:102A1800064A93420CD07B681B68DB6803F003030B
:102A2800002B0FD00123FB610CE000BF0010024611
:102A38007B681B681846FFF730F80346002B01D067
:102A48000123FB61FB69012B0ED17B689B6F43F46B
:102A580080627B689A677B68DB6F43F002027B6861
:102A6800DA67786800F06CF87B681B6810221A60D7
:102A7800BB6903F00103002B1BD07B6903F0010342
:102A8800002B16D07B689B6F03F01003002B05D139
:102A98007B689B6F43F001027B689A67786800F057
:102AA8006DF87B681B685A687B681B6822F0010216
:102AB8005A607B681B68174A934226D1BB6903F4A6
:102AC8000063002B0CD07B6903F40063002B07D054
:102AD800786800F03FF87B681B684FF400621A6062
:102AE800BB6903F48053002B0FD07B6903F4805338
:102AF800002B0AD0786800F037F87B681B685A68A2
:102B08007B681B6822F480525A6000BF2037BD469C
:102B180080BD00BF0010024680B483B000AF78606B
:102B280000BF0C37BD465DF8047B704780B483B0A6
:102B380000AF786000BF0C37BD465DF8047B704776
:102B480080B483B000AF786000BF0C37BD465DF835
:102B5800047B704780B483B000AF786000BF0C3747
:102B6800BD465DF8047B704780B483B000AF7860E1
:102B780000BF0C37BD465DF8047B704780B483B056
:102B880000AF786000BF0C37BD465DF8047B704726
:102B980080B5BCB000AF78603960002387F8EF30AB
:102BA8000023BB607B681B68A84A934203D17B68FB
:102BB8001B69B3F1004F7B6893F87430012B02D185
:102BC800022300F06DBE7B68012283F874207B68C5
:102BD8001B681846FFF7CEF80346002B40F04D86D9
:102BE8007B681B68994A934200F0EA833B681B683C
:102BF80023F07F43002B08D13B681B689B0E03F032
:102C08001F03012202FA03F31DE03B681B68C7F8A3
:102C1800D030D7F8D03093FAA3F3C7F8CC30D7F830
:102C2800CC30C7F8D430D7F8D430002B01D12023CA
:102C380004E0D7F8D430B3FA83F3DBB203F01F0310
:102C4800012202FA03F37A681268D1697A68126875
:102C58000B43D3617B6818683B6859683B681B68FD
:102C68001A46FEF76FFE7B681B681846FFF782F866
:102C7800C7F8E0007B681B681846FFF7A2F8C7F89A
:102C8800DC00D7F8E030002B40F0ED81D7F8DC30DD
:102C9800002B40F0E8817B6818683B6819683B683E
:102CA8009B681A46FEF71AFF3B685A697B681B68DF
:102CB800DB689B0803F003035B0002FA03F3C7F821
:102CC800D8303B681B69042B46D07B6818683B6882
:102CD80019693B681A68D7F8D830FEF73FFD7B685A
:102CE80018683B6819693B68DB691A46FEF783FD7B
:102CF8003B689B7E012B1ED17B6818683B6819696D
:102D08003B685B7E002B02D14FF0007300E000238C
:102D18001A46FEF7A6FD7B6818683B6819693B6888
:102D28005B7E012B02D14FF0806300E000231A463E
:102D3800FEF77CFD97E17B6818683B681B690022F9
:102D48001946FEF78EFD7B6818683B681B690022F0
:102D58001946FEF76BFD86E17B681B680021184663
:102D6800FEF71DFD034623F07F43002B0AD17B6845
:102D78001B6800211846FEF712FD03469B0E03F060
:102D88001F021EE07B681B6800211846FEF707FD3E
:102D98000346C7F8C430D7F8C43093FAA3F3C7F88A
:102DA800C030D7F8C030C7F8C830D7F8C830002BC3
:102DB80001D1202304E0D7F8C830B3FA83F3DBB29B
:102DC8001A463B681B6823F07F43002B05D13B68FC
:102DD8001B689B0E03F01F0318E03B681B68C7F8CD
:102DE800B830D7F8B83093FAA3F3C7F8B430D7F8A7
:102DF800B430C7F8BC30D7F8BC30002B01D1202341
:102E080004E0D7F8BC30B3FA83F3DBB29A4207D1B7
:102E18007B6818683B681A6800230021FEF79EFC4F
:102E28007B681B6801211846FEF7B9FC034623F0AE
:102E38007F43002B0CD17B681B6801211846FEF7E5
:102E4800AEFC03469B0E03F01F0220E00010024672
:102E58007B681B6801211846FEF7A1FC0346C7F8EA
:102E6800AC30D7F8AC3093FAA3F3C7F8A830D7F84A
:102E7800A830C7F8B030D7F8B030002B01D12023E4
:102E880004E0D7F8B030B3FA83F3DBB21A463B68F4
:102E98001B6823F07F43002B05D13B681B689B0E02
:102EA80003F01F0318E03B681B68C7F8A030D7F889
:102EB800A03093FAA3F3C7F89C30D7F89C30C7F832
:102EC800A430D7F8A430002B01D1202304E0D7F890
:102ED800A430B3FA83F3DBB29A4207D17B6818684F
:102EE8003B681A6800230121FEF738FC7B681B68E1
:102EF80002211846FEF753FC034623F07F43002BBC
:102F08000AD17B681B6802211846FEF748FC034675
:102F18009B0E03F01F021EE07B681B680221184607
:102F2800FEF73DFC0346C7F89430D7F8943093FA7F
:102F3800A3F3C7F89030D7F89030C7F89830D7F88F
:102F48009830002B01D1202304E0D7F89830B3FA49
:102F580083F3DBB21A463B681B6823F07F43002BE0
:102F680005D13B681B689B0E03F01F0318E03B6804
:102F78001B68C7F88830D7F8883093FAA3F3C7F8E6
:102F88008430D7F88430C7F88C30D7F88C30002BD1
:102F980001D1202304E0D7F88C30B3FA83F3DBB2F5
:102FA8009A4207D17B6818683B681A680023022197
:102FB800FEF7D4FB7B681B6803211846FEF7EFFB7E
:102FC800034623F07F43002B0AD17B681B6803214B
:102FD8001846FEF7E4FB03469B0E03F01F021AE0B7
:102FE8007B681B6803211846FEF7D9FB0346FB677D
:102FF800FB6F93FAA3F3BB67BB6FC7F88030D7F8B2
:103008008030002B01D1202304E0D7F88030B3FAB8
:1030180083F3DBB21A463B681B6823F07F43002B1F
:1030280005D13B681B689B0E03F01F0311E03B684A
:103038001B683B673B6F93FAA3F3FB66FB6E7B67EA
:103048007B6F002B01D1202303E07B6FB3FA83F35E
:10305800DBB29A4207D17B6818683B681A6800237C
:103068000321FEF77BFB7B681B681846FEF734FEDE
:103078000346002B40F00E847B6818683B6819688B
:103088003B68DB681A46FEF78DFD3B68DB6813F585
:10309800803F40F0D6803B681B6823F07F43002BBD
:1030A8000BD13B681B689B0E013303F01F03092BF0
:1030B80094BF01230023DBB219E03B681B687B66E1
:1030C8007B6E93FAA3F33B663B6EBB66BB6E002B2D
:1030D80001D1202303E0BB6EB3FA83F3DBB20133E3
:1030E80003F01F03092B94BF01230023DBB2002B3D
:1030F8004DD03B681B6823F07F43002B07D13B680A
:103108001B689B0E01339B0603F0F84215E03B68F1
:103118001B68BB65BB6D93FAA3F37B657B6DFB6591
:10312800FB6D002B01D1202303E0FB6DB3FA83F381
:10313800DBB201339B0603F0F8423B681B6823F0BF
:103148007F43002B09D13B681B689B0E013303F0BA
:103158001F03012101FA03F317E03B681B68FB64B6
:10316800FB6C93FAA3F3BB64BB6C3B653B6D002B14
:1031780001D1202303E03B6DB3FA83F3DBB20133C3
:1031880003F01F03012101FA03F313434EE03B68E8
:103198001B6823F07F43002B07D13B681B689B0EFD
:1031A80001339B0603F0F84215E03B681B683B645B
:1031B8003B6C93FAA3F3FB63FB6B7B647B6C002B88
:1031C80001D1202303E07B6CB3FA83F3DBB2013334
:1031D8009B0603F0F8423B681B6823F07F43002BF3
:1031E80009D13B681B689B0E013303F01F030121C3
:1031F80001FA03F317E03B681B687B637B6B93FA68
:10320800A3F33B633B6BBB63BB6B002B01D1202358
:1032180003E0BB6BB3FA83F3DBB2013303F01F03A4
:10322800012101FA03F3134343F00073C7F8E830B0
:103238007B6818683B689B681A46D7F8E810FEF761
:103248004DFC3B681B68002B80F224837B681B685D
:10325800994A934201D1994B00E0994B1846FEF7E1
:103268004FFAC7F8E4007B681B68934A934209D178
:103278009148FEF731FD0346002B0CBF01230023C4
:10328800DBB208E08F48FEF727FD0346002B0CBF92
:1032980001230023DBB2002B00F088803B681B6809
:1032A800894A934232D1D7F8E43003F40003002B63
:1032B8002CD17B681B68804A934205D07B681B68C9
:1032C800804A934240F0E3827B681B687A4A9342C3
:1032D80001D17A4A00E07A4AD7F8E43043F400038F
:1032E80019461046FEF7F9F9784B1B689B09784A8E
:1032F800A2FB03239B0901335B00BB6002E0BB68B0
:10330800013BBB60BB68002BF9D1C0E23B681B687E
:10331800704A934221D1D7F8E43003F08073002B30
:103328001BD17B681B68644A934205D07B681B6885
:10333800644A934240F0AD827B681B685E4A9342C0
:1033480001D15E4A00E05E4AD7F8E43043F080736A
:1033580019461046FEF7C1F99BE23B681B685E4AB6
:10336800934240F09782D7F8E43003F48003002BAF
:1033780040F090827B681B684F4A934205D07B6877
:103388001B68504A934240F085827B681B684A4A12
:10339800934201D1494A00E0494AD7F8E43043F45E
:1033A800800319461046FEF798F973E27B689B6F15
:1033B80043F020027B689A67012387F8EF3069E2BF
:1033C8003B681B68C7F8E8303B685B68022B00F075
:1033D80091817B681B69B3F1004F04D07B681B693E
:1033E8003E4A934207D17B681B68D7F8E810184615
:1033F800FEF708FBB0E07B68D3F888203B685B6881
:1034080003F01F030F2101FA03F3DB431A40D7F837
:10341800E83023F07F43002B05D1D7F8E8309B0E26
:1034280003F01F0311E0D7F8E830BB62BB6A93FAD8
:10343800A3F37B627B6AFB62FB6A002B01D120232A
:1034480003E0FB6AB3FA83F3DBB23968496801F039
:103458001F018B401A437B68C3F888203B685B6870
:103468009B085A1C7B689B6A9A4275D802F0E6FC56
:103478000346B3F5805F66D8D7F8E83023F07F437A
:10348800002B0AD1D7F8E8309B0E03F01F03132B4B
:103498008CBF01230023DBB22BE0D7F8E830FB61B7
:1034A800FB6993FAA3F3BB61BB693B623B6A002BE0
:1034B80016D1202318E000BF008002420883024290
:1034C8000813024600100246000008CE040000203F
:1034D800632D3E05000004CA010000801000008032
:1034E8003B6AB3FA83F3DBB2132B8CBF01230023AF
:1034F800DBB2002B27D0D7F8E83023F07F43002B2E
:1035080009D1D7F8E8309B0E03F01F03093B0122CD
:1035180002FA03F315E0D7F8E8303B613B6993FA08
:10352800A3F3FB60FB687B617B69002B01D120233F
:1035380003E07B69B3FA83F3DBB2093B012202FAA9
:1035480003F3C7F8E8307B6818683B685B68D7F80E
:10355800E8201946FEF7F6F97B6818683B689B680F
:103568001A46D7F8E810FEF7B9FA3B681B68002B33
:1035780080F290817B681B68974A934201D1974BF0
:1035880000E0974B1846FEF7BBF8C7F8E4003B6825
:103598001B68944A934226D1D7F8E43003F4000319
:1035A800002B20D17B681B688B4A934201D18B4A40
:1035B80000E08B4AD7F8E43043F40003194610467C
:1035C800FEF78BF8884B1B689B09884AA2FB0323EC
:1035D8009B095B00BB6002E0BB68013BBB60BB684A
:1035E800002BF9D167E03B681B68814A934216D1EA
:1035F800D7F8E43003F08073002B10D17B681B6888
:10360800754A934201D1754A00E0754AD7F8E4300B
:1036180043F0807319461046FEF75FF84BE03B68AD
:103628001B68744A934216D1D7F8E43003F4800338
:10363800002B10D17B681B68674A934201D1674A07
:1036480000E0674AD7F8E43043F48003194610468F
:10365800FEF743F82FE03B681B68674A93422AD17C
:10366800D7F8E43003F48003002B24D17B681B686F
:10367800624A93421FD17B681B68574A934201D123
:10368800564A00E0564AD7F8E43043F48003194616
:103698001046FEF722F802F0D1FB0346B3F5805F2F
:1036A80009D87B681B68D3F8D0207B681B6842F078
:1036B8000102C3F8D02002F0C1FB0346B3F5005F56
:1036C80040F0E8803B681B684D4A934240F0E28036
:1036D800D7F8E43003F48003002B40F0DB807B68EC
:1036E8001B68D3F8D0207B681B6842F00102C3F83E
:1036F800D020CFE07B681B69B3F1004F04D07B6812
:103708001B69404A934206D17B681B68D7F8E810CA
:103718001846FEF7AAF93B681B68002B80F2BA80AE
:103728007B681B682C4A934201D12C4B00E02C4B40
:103738001846FDF7E5FFC7F8E4003B681B68324A06
:10374800934210D17B681B68234A934201D1234AD4
:1037580000E0234AD7F8E43023F400031946104662
:10376800FDF7BBFF6DE03B681B68284A934210D108
:103778007B681B68184A934201D1184A00E0184A2E
:10378800D7F8E43023F0807319461046FDF7A5FFFB
:1037980057E03B681B68174A934210D17B681B6847
:1037A8000D4A934201D10D4A00E00D4AD7F8E430A2
:1037B80023F4800319461046FDF78FFF41E03B686C
:1037C8001B680D4A93423CD17B681B68024A9342AE
:1037D8001ED1024A1DE000BF008002420883024257
:1037E80008130246002000B604000020632D3E05A1
:1037F800004000BA01000080001000B2001002462C
:10380800000020D710000080000008CE000004CA85
:10381800254AD7F8E43023F4800319461046FDF70B
:103828005CFF02F00BFB0346B3F5805F09D87B68A9
:103838001B68D3F8D0207B681B6842F00102C3F8EC
:10384800D02002F0FBFA0346B3F5005F22D13B68B3
:103858001B68164A93421DD1D7F8E43003F480035D
:10386800002B17D17B681B68D3F8D0207B681B68B6
:1038780042F00102C3F8D0200CE07B689B6F43F054
:1038880020027B689A67012387F8EF3002E000BFC7
:1038980000E000BF7B68002283F8742097F8EF30BF
:1038A8001846F037BD4680BD08130246000020D7F1
:1038B80080B588B000AF786039600023FB613B6851
:1038C800BB617B681B681846FEF754FA38617B6851
:1038D8001B681846FEF775FAF8603B69002B03D1A0
:1038E800FB68002B00F099807B681B68DB6803F09D
:1038F8000073002B2BD07B6893F82430012B26D142
:103908007B681B7F012B22D10123BB6114E0FB697B
:10391800444A93420DD97B689B6F43F010027B6841
:103928009A677B68DB6F43F001027B68DA670123E3
:1039380074E0FB690133FB617B681B681B6803F05B
:103948004003402BE3D17B681B6840221A60BB69A7
:10395800022B14D07B681B681846FEF70BFA034647
:10396800002B0CD07B681B681846FEF7C8F9034685
:10397800002B04D17B681B681846FEF7E7F9BB6982
:10398800012B14D07B681B681846FEF71AFA034609
:10399800002B0CD07B681B681846FEF7B0F903466D
:1039A800002B04D17B681B681846FEF7F6F9BB6943
:1039B800022B05D0BB69032B05D10C237B6105E0E5
:1039C80008237B6102E004237B6100BF02F006FA52
:1039D800B8601BE002F002FA0246BB68D31A052B56
:1039E80014D97B681B689A687B691340002B0DD03B
:1039F8007B689B6F43F010027B689A677B68DB6F7C
:103A080043F001027B68DA67012307E07B681B68E3
:103A18009A687B691340002BDCD1002318462037B5
:103A2800BD4680BDFFDB0C0080B584B000AF786078
:103A38007B681B681846FEF74FF90346002B5AD1DE
:103A48007B681B689A682E4B1340002B0DD07B684F
:103A58009B6F43F010027B689A677B68DB6F43F0CB
:103A680001027B68DA67012346E07B681B68012254
:103A78001A607B681B681846FEF706F97B681B6AA4
:103A8800002B04D07B681B681E4A934233D002F097
:103A9800A5F9F86028E07B681B681846FEF71CF952
:103AA8000346002B04D17B681B681846FEF7ECF828
:103AB80002F094F90246FB68D31A022B14D97B68EA
:103AC8001B681B6803F00103012B0DD07B689B6FFB
:103AD80043F010027B689A677B68DB6F43F0010252
:103AE8007B68DA67012307E07B681B681B6803F0C3
:103AF8000103012BCFD1002318461037BD4680BDE6
:103B08003F0000800010024680B584B000AF7860A6
:103B18007B681B681846FEF7F2F8F8607B681B683C
:103B28001846FEF7D9F80346002B47D0FB68002B50
:103B380044D17B681B689B6803F00D03012B0CD1F3
:103B48007B681B681846FEF7B3F87B681B6803227E
:103B58001A6002F043F9B86029E07B689B6F43F074
:103B680010027B689A677B68DB6F43F001027B6811
:103B7800DA67012323E002F031F90246BB68D31A61
:103B8800022B14D97B681B689B6803F00103002B88
:103B98000DD07B689B6F43F010027B689A677B6847
:103BA800DB6F43F001027B68DA67012307E07B687B
:103BB8001B689B6803F00103002BDCD10023184627
:103BC8001037BD4680BD000080B483B000AF786078
:103BD80039607B680F4A93420CD07B689A680E4B19
:103BE80013403A6802F48032134343F000427B6882
:103BF8009A6009E07B689B6823F0004323F03F0349
:103C080043F000427B689A6000BF0C37BD465DF800
:103C1800047B704700100246C0FFFE7F80B483B06B
:103C280000AF78607B689B6803F00043B3F1004FF6
:103C380001D1012300E0002318460C37BD465DF88A
:103C4800047B704780B58AB000AFF860B9607A60CD
:103C580000233B61FB6893F87430012B01D10223E8
:103C680038E1FB68012283F87420F868FFF74CFFFD
:103C7800034687F8273097F82730002B40F01E813D
:103C8800FB689B6F23F4885323F0020343F002027E
:103C9800FB689A67FB681B68904A934250D1FB689F
:103CA8001B685B6C03F00103BB61FB681B68DB6886
:103CB80003F003037B61FB681B68DA68FB681B6819
:103CC80022F00302DA60FB681B685A6CFB681B6809
:103CD80022F001025A64FB681B6800211846FFF7AE
:103CE80073FF14E03B6901333B613B697C4A9342B3
:103CF8000DD9FB689B6F23F0120343F01002FB6899
:103D08009A67FB68002283F874200123E2E0FB68CD
:103D18001B681846FFF782FF0346002BE2D1FB68B9
:103D28001B68D968FB681B687A690A43DA60FB6814
:103D38001B68596CFB681B68BA690A435A64B4E08B
:103D4800684B1B68C3F30B033B62664B1B681B0C79
:103D58009BB2FB613B6A40F25542934212D03B6AE8
:103D680040F2764293420DD03B6A40F28142934240
:103D780004D03B6A40F28242934272D1FB69B3F5A8
:103D8800405F6ED3F868FFF74FFE034687F8273089
:103D980097F82730002B40F08880FB681B689B68E9
:103DA80023F07062FB681B6842F010629A60BFF3F0
:103DB8005F8F00BFFB681B68D3F8C830D9B2FB68B7
:103DC8001A68494B0B43C2F8C830BFF35F8F00BF76
:103DD800FB681B68D3F8C420FB681B6842F080723C
:103DE800C3F8C420F868FFF78FFE034687F827302A
:103DF800BB68B3F1011F09D1FB681B689A683B4B8C
:103E08001340FA68126843F480339360FB681B68B8
:103E18009B6823F0004323F03F03FA68126843F0DD
:103E28000043936014E03B6901333B613B692C4AD2
:103E380093420DD9FB689B6F23F0120343F01002E5
:103E4800FB689A67FB68002283F87420012341E02D
:103E5800FB681B681846FFF7E1FE0346002BE2D11A
:103E680023E0FB681B68B9681846FFF7ADFE14E04D
:103E78003B6901333B613B69194A93420DD9FB68A1
:103E88009B6F23F0120343F01002FB689A67FB68EC
:103E9800002283F8742001231CE0FB681B68184685
:103EA800FFF7BCFE0346002BE2D1FB689B6F23F0B3
:103EB800030343F00102FB689A6705E0FB689B6F08
:103EC80043F01002FB689A67FB68002283F87420AD
:103ED80097F8273018462837BD4680BD001002469F
:103EE8007F6B2B02004004E000110203C0FFFE7F3D
:103EF80080B483B000AF786000BF0C37BD465DF872
:103F0800047B704780B483B000AF786000BF0C3783
:103F1800BD465DF8047B704780B483B000AF78601D
:103F280000BF0C37BD465DF8047B704780B483B092
:103F380000AF786000BF0C37BD465DF8047B704762
:103F480080B584B000AF786001F048FFF8607B6806
:103F5800002B01D10123F0E07B681B68794A93426A
:103F680000F09F807B681B68774A934200F0998035
:103F78007B681B68754A934200F093807B681B68D6
:103F8800734A934200F08D807B681B68714A9342A4
:103F980000F087807B681B686F4A934200F081803D
:103FA8007B681B686D4A93427BD07B681B686C4AB0
:103FB800934276D07B681B686A4A934271D07B68CB
:103FC8001B68694A93426CD07B681B68674A9342B6
:103FD80067D07B681B68664A934262D07B681B681F
:103FE800644A93425DD07B681B68634A934258D009
:103FF8007B681B68614A934253D07B681B68604AA0
:1040080093424ED07B681B685E4A934249D07B68D6
:104018001B685D4A934244D07B681B685B4A9342A5
:104028003FD07B681B685A4A93423AD07B681B682A
:10403800584A934235D07B681B68574A934230D020
:104048007B681B68554A93422BD07B681B68544A8F
:10405800934226D07B681B68524A934221D07B68E2
:104068001B68514A93421CD07B681B684F4A934295
:1040780017D07B681B684E4A934212D07B681B6836
:104088004C4A93420DD07B681B684B4A934208D038
:104098007B681B68494A934203D07B681B68484A7F
:1040A80093427B68002283F84C207B6893F8543055
:1040B800DBB2002B0ED17B6800221A667B680022D7
:1040C8005A667B6800229A667B680022DA667B68FB
:1040D80000221A677B68022283F854207B681B68D9
:1040E8005A697B681B6842F006025A610FE001F0CA
:1040F80075FE0246FB68D31A052B08D97B68102287
:104108009A657B68032283F85420012315E07B68B5
:104118001B685B6903F00103002BE8D1786800F0A5
:104128000DFC7B685A6B7B681A657B6800229A6570
:104138007B68012283F85420002318461037BD46B7
:1041480080BD00BF5000024050000250D000024025
:10415800D00002505001024050010250D0010240EC
:10416800D00102505002024050020250D0020240D8
:10417800D00202505003024050030250D0030240C4
:10418800D00302505004024050040250D0040240B0
:10419800D00402505005024050050250D00502409C
:1041A800D00502505006024050060250D006024088
:1041B800D00602505007024050070250D007024074
:1041C800D007025080B584B000AF786001F006FED9
:1041D800F8607B68002B01D10123B9E07B681B687C
:1041E80023F47F6323F00F03BB607B681B685A6965
:1041F8007B681B6842F006025A610FE001F0EEFD91
:104208000246FB68D31A052B08D97B6810229A65E9
:104218007B68032283F85420012399E07B681B689C
:104228005B6903F00103002BE8D17B681B6800225F
:104238001A607B681B6800225A617B681B68002231
:104248001A647B681B6800225A647B681B6800221A
:104258009A647B681B680022DA647B681B6800220A
:104268001A657B681B680022DA677B681B683A4A14
:10427800934222D07B681B68384A93421DD07B68E2
:104288001B68374A934218D07B681B68354A9342AB
:1042980013D07B681B68344A93420ED07B681B6836
:1042A800324A934209D07B681B68314A934204D052
:1042B8007B681B682F4A934201D1012300E0002349
:1042C800002B07D07B681B6800225A657B681B6837
:1042D80000229A65BB685A687B681B68C3F30B03A6
:1042E800503BDB0903F01F03012101FA03F3DB4311
:1042F8001A40BB685A607B681B684FF4FE42DA605C
:104308007B6800221A667B6800225A667B68002256
:104318009A667B680022DA667B6800221A677B68E7
:1043280000225A677B68DB6D002B02D07B68002275
:10433800DA657B6800221A657B6800229A657B68CB
:10434800002283F854207B68002283F84C20002345
:1043580018461037BD4680BD500602405006025030
:10436800D0060240D00602505007024050070250C3
:10437800D0070240D007025080B584B000AFF86083
:10438800B9607A603B60FB68002B01D101234FE0E4
:10439800FB6893F84C30012B01D1022348E0FB68FD
:1043A800012283F84C20FB6893F85430DBB2012BD0
:1043B80036D1FB68022283F85420FB6800229A65F4
:1043C8003B687A68B968F86800F092FAFB681B687D
:1043D8005A69FB681B6842F4BA425A61FB685B6E13
:1043E800002B07D0FB681B685A69FB681B6842F4FE
:1043F80000725A61FB681B6F002B07D0FB681B68B3
:104408005A69FB681B6842F400525A61FB681B68D2
:104418005A69FB681B6842F001025A61002307E0F1
:10442800FB6840229A65FB68002283F84C20012330
:1044380018461037BD4680BD80B584B000AF78609F
:1044480001F0CCFCF8607B68002B01D101236BE004
:104458007B6893F85430DBB2022B08D07B682022AB
:104468009A657B68002283F84C2001235CE07B6816
:104478001B685A697B681B6842F004025A617B68B2
:10448800052283F8542020E001F0A8FC0246FB68CE
:10449800D31A052B19D97B689B6D43F010027B68F2
:1044A8009A657B68032283F854207B681B6D03F0B0
:1044B8008003002B03D07B685B6F01221A737B6833
:1044C800002283F84C2001232EE07B681B681B69BF
:1044D80003F40053002BD7D07B681B685A697B68AC
:1044E8001B6842F002025A617B68042283F8542058
:1044F8007B681B684FF4FE42DA607B68012283F810
:1045080054207B681B6D03F08003002B07D07B6869
:104518005B6F01221A737B681B6800229A647B68B0
:10452800002283F84C20002318461037BD4680BD72
:1045380080B483B000AF78607B68002B01D1012381
:1045480019E07B6893F85430DBB2022B04D07B6807
:1045580020229A6501230EE07B68042283F8542008
:104568007B681B685B697A68126843F4005343F000
:1045780004035361002318460C37BD465DF8047BDD
:10458800704780B586B000AF78607B681B6823F4FD
:104598007F6323F00F037B617B681B68C3F30B0306
:1045A800503BDB0903F01F03012202FA03F33B61CE
:1045B8007B69DB683A691340FB60FB68002B00F0FD
:1045C8003B817B681B681B6903F48063002B11D057
:1045D8007B681B685B6903F48063002B0AD07B68E7
:1045E8001B684FF48062DA607B689B6D43F00102C0
:1045F8007B689A657B681B681B6903F40063002B62
:1046080011D07B681B685B6903F40063002B0AD038
:104618007B681B684FF40062DA607B689B6D43F02F
:1046280002027B689A657B681B681B6903F48053E8
:10463800002B11D07B681B685B6903F48053002B47
:104648000AD07B681B684FF48052DA607B689B6DE8
:1046580043F004027B689A657B681B681B6903F456
:104668008043002B11D07B681B685B6903F480438F
:10467800002B0AD07B681B684FF48042DA607B68A5
:104688009B6D43F008027B689A657B681B681B6911
:1046980003F40073002B13D07B681B685B6903F479
:1046A8000073002B0CD07B681B684FF40072DA6033
:1046B8007B685B6E002B03D07B685B6E78689847DD
:1046C8007B681B681B6903F40053002B4CD07B6884
:1046D8001B685B6903F40053002B45D07B681B689B
:1046E8004FF40052DA607B6893F85430DBB2042B45
:1046F8002ED17B681B685A697B681B6822F40052BC
:104708005A617B681B685A697B681B6842F0020221
:104718005A617B68012283F854207B681B6D03F083
:104728008003002B07D07B685B6F01221A737B68BC
:104738001B6800229A647B68002283F84C207B68FF
:10474800DB6E002B7AD07B68DB6E7868984775E063
:104758007B68052283F854207B681B6F002B03D0ED
:104768007B681B6F786898477B681B681B6903F434
:104778008073002B39D07B681B685B6903F48073F6
:10478800002B32D07B681B6D03F08003002B12D006
:104798007B681B68DB6F002B16D17B681B689B6CE2
:1047A800002B11D17B68012283F854207B685B6F52
:1047B80001221A7308E07B681B689B6C002B03D1ED
:1047C8007B68012283F854207B681B684FF4407291
:1047D800DA607B68002283F84C207B681B6E002B14
:1047E80003D07B681B6E786898477B689B6D002BAD
:1047F80025D07B681B685A697B681B6842F00202F7
:104808005A617B68012283F854207B681B6D03F092
:104818008003002B03D07B685B6F01221A737B68CF
:10482800002283F84C207B689B6E002B07D07B68A6
:104838009B6E7868984702E000BF00E000BF183719
:10484800BD4680BD80B483B000AF78607B6893F8C4
:104858005430DBB218460C37BD465DF8047B704710
:1048680080B483B000AF78607B689B6D18460C37C6
:10487800BD465DF8047B704780B485B000AF7860B2
:1048880039607B68002B01D101232BE07B681B6812
:1048980023F47F6323F00F03FB607B681B68C3F37B
:1048A8000B03503BDB0903F01F03012202FA03F359
:1048B800BB603B6803F01003002B12D03B6803F089
:1048C8001103112B06D1FB685A68BB681A43FB68B1
:1048D8005A6006E0FB685A68BB68DB431A40FB680D
:1048E8005A60002318461437BD465DF8047B7047AC
:1048F80080B485B000AFF860B9607A603B60FB684F
:104908001B689B6C1B0C1B043A6891B2FA6812680E
:104918000B439364FB681B684FF4FE42DA60FB6844
:104928001B68BA68DA64FB681B687A681A6500BF96
:104938001437BD465DF8047B7047000080B485B02D
:1049480000AF78607B681B6AFB607B681B685B69EB
:1049580023F443017B681B68FA680A435A617B6841
:104968005A697B68DB691A437B681B691A437B6851
:104978009B691343FB607B681B68534A934200F0B2
:10498800A0807B681B68514A934200F09A807B683C
:104998001B684F4A934200F094807B681B684D4A1D
:1049A800934200F08E807B681B684B4A934200F06C
:1049B80088807B681B68494A934200F082807B6844
:1049C8001B68474A93427CD07B681B68454A9342E0
:1049D80077D07B681B68444A934272D07B681B6817
:1049E800424A93426DD07B681B68414A934268D023
:1049F8007B681B683F4A934263D07B681B683E4ACA
:104A080093425ED07B681B683C4A934259D07B68CE
:104A18001B683B4A934254D07B681B68394A9342CF
:104A28004FD07B681B68384A93424AD07B681B6822
:104A3800364A934245D07B681B68354A934240D03A
:104A48007B681B68334A93423BD07B681B68324AB9
:104A5800934236D07B681B68304A934231D07B68DA
:104A68001B682F4A93422CD07B681B682D4A9342BF
:104A780027D07B681B682C4A934222D07B681B682E
:104A88002A4A93421DD07B681B68294A934218D052
:104A98007B681B68274A934213D07B681B68264AA9
:104AA80093420ED07B681B68244A934209D07B68E6
:104AB8001B68234A934204D07B681B68214A9342AF
:104AC80042D1012341E000BF500002405000025093
:104AD800D0000240D0000250500102405001025064
:104AE800D0010240D0010250500202405002025050
:104AF800D0020240D002025050030240500302503C
:104B0800D0030240D0030250500402405004025027
:104B1800D0040240D0040250500502405005025013
:104B2800D0050240D00502505006024050060250FF
:104B3800D0060240D00602505007024050070250EB
:104B4800D0070240D00702500023002B12D07B6808
:104B5800DA6A7B689B6A013B1B0503F07C731A4386
:104B68007B685B6A013B1B0103F47C731343FA689F
:104B78001343FB607B681B681B6C03F080217B6818
:104B88001B68FA680A431A647B689A687B685B68E2
:104B980003F07F031A437B681B6B1343FB607B683E
:104BA800DB68B3F5806F40F0B0807B681B68824A91
:104BB800934200F0A0807B681B68804A934200F013
:104BC8009A807B681B687E4A934200F094807B68D9
:104BD8001B687C4A934200F08E807B681B687A4A87
:104BE800934200F088807B681B68784A934200F003
:104BF80082807B681B68764A93427CD07B681B68FE
:104C0800744A934277D07B681B68734A934272D088
:104C18007B681B68714A93426DD07B681B68704A39
:104C2800934268D07B681B686E4A934263D07B6866
:104C38001B686D4A93425ED07B681B686B4A93423F
:104C480059D07B681B686A4A934254D07B681B68BA
:104C5800684A93424FD07B681B68674A93424AD0A0
:104C68007B681B68654A934245D07B681B68644A29
:104C7800934240D07B681B68624A93423BD07B6872
:104C88001B68614A934236D07B681B685F4A93422F
:104C980031D07B681B685E4A93422CD07B681B68C6
:104CA8005C4A934227D07B681B685B4A934222D0B8
:104CB8007B681B68594A93421DD07B681B68584A19
:104CC800934218D07B681B68564A934213D07B687E
:104CD8001B68554A93420ED07B681B68534A93421F
:104CE80009D07B681B68524A934204D07B681B68D2
:104CF800504A934201D1012300E00023002B0DD03C
:104D0800FB6843F48063FB6008E07B68DB68B3F50D
:104D1800007F03D1FB6843F40073FB607B681B686A
:104D28005A6C454B13407A681268F9680B43536410
:104D38007B681B6800229A647B681B68364A93422A
:104D480022D07B681B68354A93421DD07B681B685C
:104D5800334A934218D07B681B68324A934213D077
:104D68007B681B68304A93420ED07B681B682F4AC9
:104D7800934209D07B681B682D4A934204D07B6814
:104D88001B682C4A934201D1012300E00023002B29
:104D980007D07B681B6800225A657B681B68002265
:104DA8009A657B681B680022DA6700BF1437BD4626
:104DB8005DF8047B704700BF50000240500002506D
:104DC800D0000240D0000250500102405001025071
:104DD800D0010240D001025050020240500202505D
:104DE800D0020240D0020250500302405003025049
:104DF800D0030240D0030250500402405004025035
:104E0800D0040240D0040250500502405005025020
:104E1800D0050240D005025050060240500602500C
:104E2800D0060240D00602505007024050070250F8
:104E3800D0070240D00702508031C03C80B584B012
:104E480000AF786000F0CAFFF8607B68002B01D1E2
:104E58000123DBE07B681B686E4A934200F09F8069
:104E68007B681B686C4A934200F099807B681B68DA
:104E78006A4A934200F093807B681B68684A9342B1
:104E880000F08D807B681B68664A934200F087803B
:104E98007B681B68644A934200F081807B681B68CA
:104EA800624A93427BD07B681B68614A934276D002
:104EB8007B681B685F4A934271D07B681B685E4AB7
:104EC80093426CD07B681B685C4A934267D07B68CE
:104ED8001B685B4A934262D07B681B68594A9342BD
:104EE8005DD07B681B68584A934258D07B681B6822
:104EF800564A934253D07B681B68554A93424ED01A
:104F08007B681B68534A934249D07B681B68524AA6
:104F1800934244D07B681B68504A93423FD07B68D9
:104F28001B684F4A93423AD07B681B684D4A9342AC
:104F380035D07B681B684C4A934230D07B681B682D
:104F48004A4A93422BD07B681B68494A934226D031
:104F58007B681B68474A934221D07B681B68464A96
:104F680093421CD07B681B68444A934217D07B68E5
:104F78001B68434A934212D07B681B68414A93429C
:104F88000DD07B681B68404A934208D07B681B6839
:104F98003E4A934203D07B681B683D4A93427B6834
:104FA800002283F84C207B68022283F854207B6817
:104FB8001B685A697B681B6842F006025A610FE059
:104FC80000F00CFF0246FB68D31A052B08D97B6852
:104FD80010229A657B68032283F85420012315E088
:104FE8007B681B685B6903F00103002BE8D17868D4
:104FF80000F0CAFA7B689A6C7B681A657B680022A5
:105008009A657B68012283F85420002318461037DC
:10501800BD4680BD5000024050000250D000024002
:10502800D00002505001024050010250D00102400D
:10503800D00102505002024050020250D0020240F9
:10504800D00202505003024050030250D0030240E5
:10505800D00302505004024050040250D0040240D1
:10506800D00402505005024050050250D0050240BD
:10507800D00502505006024050060250D0060240A9
:10508800D00602505007024050070250D007024095
:10509800D007025080B586B000AF78607B68002BDF
:1050A80003D07B685B6F002B01D1012382E07B6812
:1050B80093F85430FB757B681B685B6903F4803395
:1050C8003B61FB7D012B05D0FB7D022B6AD13B693F
:1050D800002B67D07B6893F85430DBB2012B57D193
:1050E8007B6893F84C30012B01D1022362E07B6886
:1050F800012283F84C207B68022283F854207B68C5
:105108005B6F02221A737B6800229A657B685B6F6B
:1051180000221A617B681B685A697B681B6842F425
:10512800BA425A617B685B6E002B07D07B681B68AC
:105138005A697B681B6842F400725A617B681B6F6E
:10514800002B07D07B681B685A697B681B6842F490
:1051580000525A617B685B6F1B6807F10C010022E3
:10516800184600F027FD7B685B6F1B6819467B6853
:105178001A680B0C1B0413607B685B6F1B681A466C
:105188004FF6FC731340F9687A6812680B43D367CB
:105198007B681B685A697B681B6842F001025A6188
:1051A800002307E07B6840229A657B68002283F829
:1051B8004C20012318461837BD4680BD80B582B003
:1051C80000AF786039607B68002B02D03B68002B09
:1051D80001D1012304E03968786800F02DFB002331
:1051E80018460837BD4680BD80B58CB000AFF86062
:1051F800B9607A60FB68002B02D07B68002B01D174
:105208000123B6E0FB685B69012B04D1FB6804222B
:105218001A610123ADE0FB681B687A68B968184613
:1052280000F05CFC0346002B04D0FB6805221A61E1
:1052380001239EE0FB681B687A68B968184600F08D
:105248007DFC0346002B04D0FB6804221A6101236D
:105258008FE0FB6802221A73FB6800221A6107F1CB
:10526800280207F12C031946786800F0A3FCFB68B4
:105278001B68002B1AD1BB68002B06D1FB687A6823
:105288001A60FB6801229A606CE0FB68BA681A60D1
:105298007A684FF6FC731340F96ABA6A1943BB6817
:1052A80043F82210FB6802229A605BE0BB68002B7F
:1052B8000FD1FB681B681A464FF6FC731340F96A56
:1052C800BA6A19437B6843F82210FB687A681A6047
:1052D80043E0BB6A7B6107F114031A46B968F868B2
:1052E80000F098FC0346002B32D1FA69FB689B68F2
:1052F8009A421AD1FB685B68002B0BD0FB685B688D
:105308001A464FF6FC731340F96ABA6A19437B6868
:1053180043F822107A684FF6FC731340F96ABA6AA8
:105328001943BB6843F8221017E0B96ABA6ABB6828
:1053380053F821107B6843F822107A684FF6FC7303
:105348001340F96ABA6A1943BB6843F8221004E0AB
:10535800FB6806221A6101230BE0FB689B685A1C54
:10536800FB689A60FB6800221A61FB6801221A73C5
:10537800002318463037BD4680BD80B58AB000AFDF
:1053880078607B68002B01D1012352E07B681B68A1
:10539800002B04D17B6802221A61012349E07B6853
:1053A8005B68002B0CD07B685A687B681B689A4244
:1053B80001D100233DE07B6804221A61012338E013
:1053C8007B685B69012B04D17B6804221A61012385
:1053D8002FE07B6802221A737B6800221A617B68BF
:1053E8001B6807F1200207F12401184600F0E2FBD0
:1053F8003B6AFB6007F10C031A460021786800F04D
:1054080009FC7B681B681A464FF6FC731340796ADF
:10541800BA6910463A6A0B4340F822307B681A682A
:105428007B685A607B6800221A617B6801221A73C4
:10543800002318462837BD4680BD000080B485B0DB
:1054480000AF786039607B68002B02D03B68002B86
:1054580001D1012372E07B6893F85430FB737B68B9
:1054680093F85430DBB2022B02D0FB7B052B08D11A
:105478007B6840229A657B68002283F84C200123D0
:105488005CE03B681B7BDBB2022B04D13B6801224A
:105498001A61012352E07B681B682B4A934222D091
:1054A8007B681B68294A93421DD07B681B68284A81
:1054B800934218D07B681B68264A934213D07B68B6
:1054C8001B68254A93420ED07B681B68234A934287
:1054D80009D07B681B68224A934204D07B681B680A
:1054E800204A934201D1012300E00023002B0BD175
:1054F8003B681B681B6A03F00203002B04D03B685F
:1055080003221A61012319E07B681B6D812B08D1E6
:105518003B685B68002B0DD13B6804221A610123AC
:105528000CE03B685B68002B04D03B6804221A61DE
:10553800012303E07B683A685A670023184614374A
:10554800BD465DF8047B7047500602405006025085
:10555800D0060240D00602505007024050070250C1
:10556800D0070240D007025080B483B000AF786003
:105578007B681B681B691B0CDBB218460C37BD46E1
:105588005DF8047B7047000080B485B000AF786098
:105598007B689A6B7B68DB6B1343FB607B681B68DB
:1055A800854A934200F0A0807B681B68834A934237
:1055B80000F09A807B681B68814A934200F09480CF
:1055C8007B681B687F4A934200F08E807B681B686B
:1055D8007D4A934200F088807B681B687B4A93422F
:1055E80000F082807B681B68794A93427CD07B6894
:1055F8001B68784A934277D07B681B68764A934247
:1056080072D07B681B68754A93426DD07B681B68B3
:10561800734A934268D07B681B68724A934263D08E
:105628007B681B68704A93425ED07B681B686F4A30
:10563800934259D07B681B686D4A934254D07B686B
:105648001B686C4A93424FD07B681B686A4A934236
:105658004AD07B681B68694A934245D07B681B68BF
:10566800674A934240D07B681B68664A93423BD0A6
:105678007B681B68644A934236D07B681B68634A20
:10568800934231D07B681B68614A93422CD07B6877
:105698001B68604A934227D07B681B685E4A934226
:1056A80022D07B681B685D4A93421DD07B681B68CB
:1056B8005B4A934218D07B681B685A4A934213D0BE
:1056C8007B681B68584A93420ED07B681B68574A10
:1056D800934209D07B681B68554A934204D07B6883
:1056E8001B68544A934201D1012300E00023002B98
:1056F80004D07B681B6CFA681343FB607B681B68EB
:105708005B6923F443017B681B68FA680A435A61A2
:105718007B681B6800221A647B681B687A68526C75
:105728005A647B681B6800229A647B681B680022A5
:10573800DA647B681B6800221A657B681B68364A36
:10574800934222D07B681B68344A93421DD07B6801
:105758001B68334A934218D07B681B68314A9342CE
:1057680013D07B681B68304A93420ED07B681B6855
:105778002E4A934209D07B681B682D4A934204D075
:105788007B681B682B4A934201D1012300E0002368
:10579800002B07D07B681B6800225A657B681B6852
:1057A80000229A657B681B680022DA6700BF1437FD
:1057B800BD465DF8047B704750000240500002501F
:1057C800D0000240D0000250500102405001025067
:1057D800D0010240D0010250500202405002025053
:1057E800D0020240D002025050030240500302503F
:1057F800D0030240D003025050040240500402502B
:10580800D0040240D0040250500502405005025016
:10581800D0050240D0050250500602405006025002
:10582800D0060240D00602505007024050070250EE
:10583800D0070240D007025080B485B000AF78602E
:1058480039607B685A697B68DB691A437B68DB6B64
:105858001A437B681B691A437B689B691A433B6838
:105868001A607B681B6803F02003002B17D03B6885
:105878001A687B68D96A7B689B6B19437B689B6A4B
:10588800013B1B0503F07C7319437B685B6A013B92
:105898001B0103F47C730B431A433B681A607B6853
:1058A8001A6B7B68596840F27F230B401A433B68A8
:1058B8005A607B68DB68B3F5806F0CD17B681B6826
:1058C80003F02003002B11D03B685B6843F480622F
:1058D8003B685A600AE07B68DB68B3F5007F05D156
:1058E8003B685B6843F400723B685A607B685B6C9A
:1058F800002B0FD03B685A687B68196C7B685B6C1F
:1059080019437B689B6C1B0403F47C130B431A43F9
:105918003B685A607B689B6E9AB23B689A607B686A
:105928001B6803F00203002B4ED03B689A687B6823
:10593800DB6C013B1904674B0B401A433B689A60C8
:105948007B681B6D002B06DA3B689B6843F080522E
:105958003B689A6005E03B689B6823F080523B688F
:105968009A607B685B6D002B06DA3B689B6843F0A6
:1059780000523B689A6005E03B689B6823F0005240
:105988003B689A607B689B6D002B06DA3B689B68D6
:1059980043F080423B689A6005E03B689B6823F0CF
:1059A80080423B689A607B68DB6D002B06DA3B68B7
:1059B8009B6843F000423B689A6005E03B689B683F
:1059C80023F000423B689A607B681A6E3B68DA6095
:1059D8007B685A6E3B681A617B681B6803F0020398
:1059E800002B59D07B681B6D002B09DA7B681B6D77
:1059F8005B42FB60FB68C3F30C023B685A6105E03D
:105A08007B681B6DC3F30C023B685A617B685B6D56
:105A1800002B0DDA7B685B6D5B42FB603B685A6963
:105A2800FB6819042C4B0B401A433B685A6109E088
:105A38003B685A697B685B6D1904274B0B401A4316
:105A48003B685A617B689B6D002B08DA7B689B6D0D
:105A58005B42FB60FB689AB23B689A6104E07B6832
:105A68009B6D9AB23B689A617B68DB6D002B0BDA01
:105A78007B68DB6D5B42FB603B689A69FB681B04D3
:105A88001A433B689A6107E03B689A697B68DB6D5B
:105A98001B041A433B689A617B681A683B681A6260
:105AA8007B681B6803F00203002B06D03B681B6A67
:105AB80043F4E0623B681A6205E03B681B6A43F402
:105AC800A0623B681A6200BF1437BD465DF8047BCC
